{
  "address": "0x8afBE5d2D50B39F62073Dd1582D5ecfB89B3D985",
  "abi": [
    {
      "inputs": [],
      "stateMutability": "nonpayable",
      "type": "constructor"
    },
    {
      "inputs": [
        {
          "internalType": "address",
          "name": "target",
          "type": "address"
        }
      ],
      "name": "AddressEmptyCode",
      "type": "error"
    },
    {
      "inputs": [
        {
          "internalType": "address",
          "name": "implementation",
          "type": "address"
        }
      ],
      "name": "ERC1967InvalidImplementation",
      "type": "error"
    },
    {
      "inputs": [],
      "name": "ERC1967NonPayable",
      "type": "error"
    },
    {
      "inputs": [],
      "name": "FailedCall",
      "type": "error"
    },
    {
      "inputs": [],
      "name": "InvalidInitialization",
      "type": "error"
    },
    {
      "inputs": [],
      "name": "NotInitializing",
      "type": "error"
    },
    {
      "inputs": [
        {
          "internalType": "address",
          "name": "owner",
          "type": "address"
        }
      ],
      "name": "OwnableInvalidOwner",
      "type": "error"
    },
    {
      "inputs": [
        {
          "internalType": "address",
          "name": "account",
          "type": "address"
        }
      ],
      "name": "OwnableUnauthorizedAccount",
      "type": "error"
    },
    {
      "inputs": [],
      "name": "ReentrancyGuardReentrantCall",
      "type": "error"
    },
    {
      "inputs": [],
      "name": "UUPSUnauthorizedCallContext",
      "type": "error"
    },
    {
      "inputs": [
        {
          "internalType": "bytes32",
          "name": "slot",
          "type": "bytes32"
        }
      ],
      "name": "UUPSUnsupportedProxiableUUID",
      "type": "error"
    },
    {
      "anonymous": false,
      "inputs": [
        {
          "indexed": true,
          "internalType": "uint256",
          "name": "auctionId",
          "type": "uint256"
        },
        {
          "indexed": false,
          "internalType": "uint256",
          "name": "tokenId",
          "type": "uint256"
        },
        {
          "indexed": false,
          "internalType": "address",
          "name": "seller",
          "type": "address"
        },
        {
          "indexed": false,
          "internalType": "uint256",
          "name": "duration",
          "type": "uint256"
        }
      ],
      "name": "AuctionCreated",
      "type": "event"
    },
    {
      "anonymous": false,
      "inputs": [
        {
          "indexed": true,
          "internalType": "uint256",
          "name": "auctionId",
          "type": "uint256"
        },
        {
          "indexed": false,
          "internalType": "address",
          "name": "winner",
          "type": "address"
        },
        {
          "indexed": false,
          "internalType": "uint256",
          "name": "usdAmount",
          "type": "uint256"
        }
      ],
      "name": "AuctionEnded",
      "type": "event"
    },
    {
      "anonymous": false,
      "inputs": [
        {
          "indexed": true,
          "internalType": "uint256",
          "name": "auctionId",
          "type": "uint256"
        }
      ],
      "name": "AuctionNoBid",
      "type": "event"
    },
    {
      "anonymous": false,
      "inputs": [
        {
          "indexed": false,
          "internalType": "uint64",
          "name": "version",
          "type": "uint64"
        }
      ],
      "name": "Initialized",
      "type": "event"
    },
    {
      "anonymous": false,
      "inputs": [
        {
          "indexed": true,
          "internalType": "uint256",
          "name": "auctionId",
          "type": "uint256"
        },
        {
          "indexed": false,
          "internalType": "address",
          "name": "bidder",
          "type": "address"
        },
        {
          "indexed": false,
          "internalType": "uint256",
          "name": "usdAmount",
          "type": "uint256"
        },
        {
          "indexed": false,
          "internalType": "bool",
          "name": "isEth",
          "type": "bool"
        }
      ],
      "name": "NewBid",
      "type": "event"
    },
    {
      "anonymous": false,
      "inputs": [
        {
          "indexed": true,
          "internalType": "address",
          "name": "previousOwner",
          "type": "address"
        },
        {
          "indexed": true,
          "internalType": "address",
          "name": "newOwner",
          "type": "address"
        }
      ],
      "name": "OwnershipTransferred",
      "type": "event"
    },
    {
      "anonymous": false,
      "inputs": [
        {
          "indexed": true,
          "internalType": "address",
          "name": "implementation",
          "type": "address"
        }
      ],
      "name": "Upgraded",
      "type": "event"
    },
    {
      "inputs": [],
      "name": "UPGRADE_INTERFACE_VERSION",
      "outputs": [
        {
          "internalType": "string",
          "name": "",
          "type": "string"
        }
      ],
      "stateMutability": "view",
      "type": "function"
    },
    {
      "inputs": [],
      "name": "auctionCount",
      "outputs": [
        {
          "internalType": "uint256",
          "name": "",
          "type": "uint256"
        }
      ],
      "stateMutability": "view",
      "type": "function"
    },
    {
      "inputs": [
        {
          "internalType": "uint256",
          "name": "",
          "type": "uint256"
        }
      ],
      "name": "auctions",
      "outputs": [
        {
          "internalType": "uint256",
          "name": "tokenId",
          "type": "uint256"
        },
        {
          "internalType": "address",
          "name": "seller",
          "type": "address"
        },
        {
          "internalType": "uint256",
          "name": "endTime",
          "type": "uint256"
        },
        {
          "internalType": "address",
          "name": "highestBidder",
          "type": "address"
        },
        {
          "internalType": "uint256",
          "name": "highestBidUsd",
          "type": "uint256"
        },
        {
          "internalType": "uint256",
          "name": "rawAmount",
          "type": "uint256"
        },
        {
          "internalType": "bool",
          "name": "isEth",
          "type": "bool"
        },
        {
          "internalType": "bool",
          "name": "ended",
          "type": "bool"
        }
      ],
      "stateMutability": "view",
      "type": "function"
    },
    {
      "inputs": [
        {
          "internalType": "uint256",
          "name": "auctionId",
          "type": "uint256"
        }
      ],
      "name": "bidWithEth",
      "outputs": [],
      "stateMutability": "payable",
      "type": "function"
    },
    {
      "inputs": [
        {
          "internalType": "uint256",
          "name": "auctionId",
          "type": "uint256"
        },
        {
          "internalType": "uint256",
          "name": "amount",
          "type": "uint256"
        }
      ],
      "name": "bidWithToken",
      "outputs": [],
      "stateMutability": "nonpayable",
      "type": "function"
    },
    {
      "inputs": [
        {
          "internalType": "uint256",
          "name": "tokenId",
          "type": "uint256"
        },
        {
          "internalType": "uint256",
          "name": "durationSeconds",
          "type": "uint256"
        }
      ],
      "name": "createAuction",
      "outputs": [],
      "stateMutability": "nonpayable",
      "type": "function"
    },
    {
      "inputs": [
        {
          "internalType": "uint256",
          "name": "auctionId",
          "type": "uint256"
        }
      ],
      "name": "endAuction",
      "outputs": [],
      "stateMutability": "nonpayable",
      "type": "function"
    },
    {
      "inputs": [
        {
          "internalType": "uint256",
          "name": "auctionId",
          "type": "uint256"
        }
      ],
      "name": "getAuction",
      "outputs": [
        {
          "components": [
            {
              "internalType": "uint256",
              "name": "tokenId",
              "type": "uint256"
            },
            {
              "internalType": "address",
              "name": "seller",
              "type": "address"
            },
            {
              "internalType": "uint256",
              "name": "endTime",
              "type": "uint256"
            },
            {
              "internalType": "address",
              "name": "highestBidder",
              "type": "address"
            },
            {
              "internalType": "uint256",
              "name": "highestBidUsd",
              "type": "uint256"
            },
            {
              "internalType": "uint256",
              "name": "rawAmount",
              "type": "uint256"
            },
            {
              "internalType": "bool",
              "name": "isEth",
              "type": "bool"
            },
            {
              "internalType": "bool",
              "name": "ended",
              "type": "bool"
            }
          ],
          "internalType": "struct Auction.AuctionInfo",
          "name": "",
          "type": "tuple"
        }
      ],
      "stateMutability": "view",
      "type": "function"
    },
    {
      "inputs": [
        {
          "internalType": "address",
          "name": "_nft",
          "type": "address"
        },
        {
          "internalType": "address",
          "name": "_paymentToken",
          "type": "address"
        },
        {
          "internalType": "address",
          "name": "_ethUsdFeed",
          "type": "address"
        },
        {
          "internalType": "address",
          "name": "_tokenUsdFeed",
          "type": "address"
        }
      ],
      "name": "initialize",
      "outputs": [],
      "stateMutability": "nonpayable",
      "type": "function"
    },
    {
      "inputs": [],
      "name": "nftContract",
      "outputs": [
        {
          "internalType": "contract IERC721",
          "name": "",
          "type": "address"
        }
      ],
      "stateMutability": "view",
      "type": "function"
    },
    {
      "inputs": [],
      "name": "owner",
      "outputs": [
        {
          "internalType": "address",
          "name": "",
          "type": "address"
        }
      ],
      "stateMutability": "view",
      "type": "function"
    },
    {
      "inputs": [],
      "name": "paymentToken",
      "outputs": [
        {
          "internalType": "contract IERC20",
          "name": "",
          "type": "address"
        }
      ],
      "stateMutability": "view",
      "type": "function"
    },
    {
      "inputs": [],
      "name": "proxiableUUID",
      "outputs": [
        {
          "internalType": "bytes32",
          "name": "",
          "type": "bytes32"
        }
      ],
      "stateMutability": "view",
      "type": "function"
    },
    {
      "inputs": [],
      "name": "renounceOwnership",
      "outputs": [],
      "stateMutability": "nonpayable",
      "type": "function"
    },
    {
      "inputs": [
        {
          "internalType": "address",
          "name": "newOwner",
          "type": "address"
        }
      ],
      "name": "transferOwnership",
      "outputs": [],
      "stateMutability": "nonpayable",
      "type": "function"
    },
    {
      "inputs": [
        {
          "internalType": "address",
          "name": "newImplementation",
          "type": "address"
        },
        {
          "internalType": "bytes",
          "name": "data",
          "type": "bytes"
        }
      ],
      "name": "upgradeToAndCall",
      "outputs": [],
      "stateMutability": "payable",
      "type": "function"
    }
  ],
  "transactionHash": "0x31d50eae1ba2b44c73b0e35ee993faa4cd1e78d1b5e31b4993c08cd408369721",
  "args": [],
  "numDeployments": 1,
  "solcInputHash": "cd63584f3713421de4cae54f404a5d97",
  "bytecode": "0x60a06040523060805234801561001457600080fd5b5061001d610022565b6100d4565b7ff0c57e16840df040f15088dc2f81fe391c3923bec73e23a9662efc9c229c6a00805468010000000000000000900460ff16156100725760405163f92ee8a960e01b815260040160405180910390fd5b80546001600160401b03908116146100d15780546001600160401b0319166001600160401b0390811782556040519081527fc7f505b2f371ae2175ee4913f4499e1f2633a7b5936321eed1cdaeb6115181d29060200160405180910390a15b50565b60805161196c6100fd60003960008181610d5801528181610d810152610ec7015261196c6000f3fe6080604052600436106100f35760003560e01c80638da5cb5b1161008a578063b9a2de3a11610059578063b9a2de3a14610474578063d56d229d14610494578063f2fde38b146104b4578063f8c8765e146104d457600080fd5b80638da5cb5b146103c65780638ff05a2a14610403578063a628222a14610423578063ad3cb1cc1461043657600080fd5b806352d1902d116100c657806352d1902d1461018e578063571a26a0146101a3578063715018a61461025c57806378bd79351461027157600080fd5b80630121683f146100f85780632ad715731461011a5780633013ce29146101435780634f1ef2861461017b575b600080fd5b34801561010457600080fd5b506101186101133660046115a1565b6104f4565b005b34801561012657600080fd5b5061013060055481565b6040519081526020015b60405180910390f35b34801561014f57600080fd5b50600154610163906001600160a01b031681565b6040516001600160a01b03909116815260200161013a565b6101186101893660046115f5565b610703565b34801561019a57600080fd5b5061013061071e565b3480156101af57600080fd5b506102146101be3660046116b7565b6004602081905260009182526040909120805460018201546002830154600384015494840154600585015460069095015493956001600160a01b0393841695929493169290919060ff8082169161010090041688565b604080519889526001600160a01b0397881660208a0152880195909552949092166060860152608085015260a084015290151560c0830152151560e08201526101000161013a565b34801561026857600080fd5b5061011861073b565b34801561027d57600080fd5b5061035361028c3660046116b7565b6040805161010081018252600080825260208201819052918101829052606081018290526080810182905260a0810182905260c0810182905260e081019190915250600090815260046020818152604092839020835161010080820186528254825260018301546001600160a01b039081169483019490945260028301549582019590955260038201549092166060830152918201546080820152600582015460a082015260069091015460ff808216151560c0840152929004909116151560e082015290565b60405161013a919060006101008201905082518252602083015160018060a01b0380821660208501526040850151604085015280606086015116606085015250506080830151608083015260a083015160a083015260c0830151151560c083015260e0830151151560e083015292915050565b3480156103d257600080fd5b507f9016d09d72d40fdae2fd8ceac6b6234c7706214fd39c1cd1e609a0528c199300546001600160a01b0316610163565b34801561040f57600080fd5b5061011861041e3660046115a1565b61074f565b6101186104313660046116b7565b61082c565b34801561044257600080fd5b50610467604051806040016040528060058152602001640352e302e360dc1b81525081565b60405161013a91906116f4565b34801561048057600080fd5b5061011861048f3660046116b7565b61085a565b3480156104a057600080fd5b50600054610163906001600160a01b031681565b3480156104c057600080fd5b506101186104cf366004611727565b610b6d565b3480156104e057600080fd5b506101186104ef366004611742565b610ba8565b6104fc610d01565b61012c8110156105435760405162461bcd60e51b815260206004820152600d60248201526ce69c80e79fad35e58886e9929f60981b60448201526064015b60405180910390fd5b6000546040516323b872dd60e01b81526001600160a01b03909116906323b872dd9061057790339030908790600401611796565b600060405180830381600087803b15801561059157600080fd5b505af11580156105a5573d6000803e3d6000fd5b505060058054600093509150826105bb836117d0565b90915550604080516101008101825285815233602082015291925081016105e284426117e9565b81526000602080830182905260408084018390526060808501849052608080860185905260a095860185905287855260048085529483902087518155878501516001820180546001600160a01b039283166001600160a01b03199182161790915589860151600284015589850151600384018054919093169116179055908701519481019490945593850151600584015560c08501516006909301805460e09096015115156101000261ff00199415159490941661ffff19909616959095179290921790935580518681523393810193909352820184905282917f16429bb84f623e08ccfc26cdbb56a88c139ff2910030035fd7acda5959cedf29910160405180910390a2506106ff600160008051602061191783398151915255565b5050565b61070b610d4d565b61071482610df2565b6106ff8282610dfa565b6000610728610ebc565b506000805160206118f783398151915290565b610743610f05565b61074d6000610f60565b565b610757610d01565b6001546040516323b872dd60e01b81526001600160a01b03909116906323b872dd9061078b90339030908690600401611796565b6020604051808303816000875af11580156107aa573d6000803e3d6000fd5b505050506040513d601f19601f820116820180604052508101906107ce91906117fc565b6108095760405162461bcd60e51b815260206004820152600c60248201526be8bdace8b4a6e5a4b1e8b4a560a01b604482015260640161053a565b61081582600083610fd1565b6106ff600160008051602061191783398151915255565b610834610d01565b61084081600134610fd1565b610857600160008051602061191783398151915255565b50565b610862610d01565b600081815260046020526040902060028101544210156108b95760405162461bcd60e51b815260206004820152601260248201527139a72ab9622c39eee4f9a767f9a5edba65ed60721b604482015260640161053a565b6006810154610100900460ff16156108ff5760405162461bcd60e51b8152602060048201526009602482015268e5b7b2e7bb93e69d9f60b81b604482015260640161053a565b60068101805461ff00191661010017905560038101546001600160a01b03166109c05760005460018201548254604051632142170760e11b81526001600160a01b03938416936342842e0e9361095e9330939290911691600401611796565b600060405180830381600087803b15801561097857600080fd5b505af115801561098c573d6000803e3d6000fd5b50506040518492507f2f6bd8da4bfc6615c14d66e7b69f423c9e3e116989ed16dc7a8645ad5b0f0ef19150600090a2610b55565b60005460038201548254604051632142170760e11b81526001600160a01b03938416936342842e0e936109fc9330939290911691600401611796565b600060405180830381600087803b158015610a1657600080fd5b505af1158015610a2a573d6000803e3d6000fd5b50505050600681015460ff1615610a8157600181015460058201546040516001600160a01b039092169181156108fc0291906000818181858888f19350505050158015610a7b573d6000803e3d6000fd5b50610b04565b6001805490820154600583015460405163a9059cbb60e01b81526001600160a01b039283166004820152602481019190915291169063a9059cbb906044016020604051808303816000875af1158015610ade573d6000803e3d6000fd5b505050506040513d601f19601f82011682018060405250810190610b0291906117fc565b505b60038101546004820154604080516001600160a01b039093168352602083019190915283917fd2aa34a4fdbbc6dff6a3e56f46e0f3ae2a31d7785ff3487aa5c95c642acea501910160405180910390a25b50610857600160008051602061191783398151915255565b610b75610f05565b6001600160a01b038116610b9f57604051631e4fbdf760e01b81526000600482015260240161053a565b61085781610f60565b6000610bb2611234565b805490915060ff600160401b820416159067ffffffffffffffff16600081158015610bda5750825b905060008267ffffffffffffffff166001148015610bf75750303b155b905081158015610c05575080155b15610c235760405163f92ee8a960e01b815260040160405180910390fd5b845467ffffffffffffffff191660011785558315610c4d57845460ff60401b1916600160401b1785555b610c563361125f565b610c5e611270565b610c66611278565b600080546001600160a01b03808c166001600160a01b031992831617909255600180548b8416908316179055600280548a841690831617905560038054928916929091169190911790558315610cf657845460ff60401b19168555604051600181527fc7f505b2f371ae2175ee4913f4499e1f2633a7b5936321eed1cdaeb6115181d29060200160405180910390a15b505050505050505050565b600080516020611917833981519152805460011901610d3357604051633ee5aeb560e01b815260040160405180910390fd5b60029055565b600160008051602061191783398151915255565b306001600160a01b037f0000000000000000000000000000000000000000000000000000000000000000161480610dd457507f00000000000000000000000000000000000000000000000000000000000000006001600160a01b0316610dc86000805160206118f7833981519152546001600160a01b031690565b6001600160a01b031614155b1561074d5760405163703e46dd60e11b815260040160405180910390fd5b610857610f05565b816001600160a01b03166352d1902d6040518163ffffffff1660e01b8152600401602060405180830381865afa925050508015610e54575060408051601f3d908101601f19168201909252610e519181019061181e565b60015b610e7c57604051634c9c8ce360e01b81526001600160a01b038316600482015260240161053a565b6000805160206118f78339815191528114610ead57604051632a87526960e21b81526004810182905260240161053a565b610eb78383611288565b505050565b306001600160a01b037f0000000000000000000000000000000000000000000000000000000000000000161461074d5760405163703e46dd60e11b815260040160405180910390fd5b33610f377f9016d09d72d40fdae2fd8ceac6b6234c7706214fd39c1cd1e609a0528c199300546001600160a01b031690565b6001600160a01b03161461074d5760405163118cdaa760e01b815233600482015260240161053a565b7f9016d09d72d40fdae2fd8ceac6b6234c7706214fd39c1cd1e609a0528c19930080546001600160a01b031981166001600160a01b03848116918217845560405192169182907f8be0079c531659141344cd1fd0a4f28419497f9722a3daafe3b4186f6b6457e090600090a3505050565b6000838152600460205260409020600281015442106110245760405162461bcd60e51b815260206004820152600f60248201526ee68b8de58d96e5b7b2e7bb93e69d9f60881b604482015260640161053a565b6006810154610100900460ff161561106a5760405162461bcd60e51b8152602060048201526009602482015268e5b7b2e7bb93e7ae9760b81b604482015260640161053a565b600061107684846112de565b9050816004015481116110cb5760405162461bcd60e51b815260206004820152601e60248201527fe587bae4bbb7e5bf85e9a1bbe9ab98e4ba8ee5bd93e5898de69c80e9ab980000604482015260640161053a565b60038201546001600160a01b0316156111b457600682015460ff161561113157600382015460058301546040516001600160a01b039092169181156108fc0291906000818181858888f1935050505015801561112b573d6000803e3d6000fd5b506111b4565b6001546003830154600584015460405163a9059cbb60e01b81526001600160a01b039283166004820152602481019190915291169063a9059cbb906044016020604051808303816000875af115801561118e573d6000803e3d6000fd5b505050506040513d601f19601f820116820180604052508101906111b291906117fc565b505b600382018054336001600160a01b03199091168117909155600483018290556005830184905560068301805460ff1916861515908117909155604080519283526020830184905282015285907ff25203491f62af68d98d27c61e683af917ad41cba414886cc71b4976b363d8d29060600160405180910390a25050505050565b6000807ff0c57e16840df040f15088dc2f81fe391c3923bec73e23a9662efc9c229c6a005b92915050565b6112676113da565b610857816113ff565b61074d6113da565b6112806113da565b61074d611407565b6112918261140f565b6040516001600160a01b038316907fbc7cd75a20ee27fd9adebab32041f755214dbc6bffa90cc0225b39da2e5c2d3b90600090a28051156112d657610eb78282611474565b6106ff6114e1565b600080836112f7576003546001600160a01b0316611304565b6002546001600160a01b03165b90506000816001600160a01b031663feaf968c6040518163ffffffff1660e01b815260040160a060405180830381865afa158015611346573d6000803e3d6000fd5b505050506040513d601f19601f8201168201806040525081019061136a9190611851565b505050915050600081136113b85760405162461bcd60e51b8152602060048201526015602482015274e9a284e8a880e69cbae4bbb7e6a0bce99499e8afaf60581b604482015260640161053a565b6305f5e1006113c782866118a1565b6113d191906118b8565b95945050505050565b6113e2611500565b61074d57604051631afcd79f60e31b815260040160405180910390fd5b610b756113da565b610d396113da565b806001600160a01b03163b60000361144557604051634c9c8ce360e01b81526001600160a01b038216600482015260240161053a565b6000805160206118f783398151915280546001600160a01b0319166001600160a01b0392909216919091179055565b6060600080846001600160a01b03168460405161149191906118da565b600060405180830381855af49150503d80600081146114cc576040519150601f19603f3d011682016040523d82523d6000602084013e6114d1565b606091505b50915091506113d185838361151a565b341561074d5760405163b398979f60e01b815260040160405180910390fd5b600061150a611234565b54600160401b900460ff16919050565b60608261152f5761152a82611579565b611572565b815115801561154657506001600160a01b0384163b155b1561156f57604051639996b31560e01b81526001600160a01b038516600482015260240161053a565b50805b9392505050565b80511561158857805160208201fd5b60405163d6bda27560e01b815260040160405180910390fd5b600080604083850312156115b457600080fd5b50508035926020909101359150565b80356001600160a01b03811681146115da57600080fd5b919050565b634e487b7160e01b600052604160045260246000fd5b6000806040838503121561160857600080fd5b611611836115c3565b9150602083013567ffffffffffffffff8082111561162e57600080fd5b818501915085601f83011261164257600080fd5b813581811115611654576116546115df565b604051601f8201601f19908116603f0116810190838211818310171561167c5761167c6115df565b8160405282815288602084870101111561169557600080fd5b8260208601602083013760006020848301015280955050505050509250929050565b6000602082840312156116c957600080fd5b5035919050565b60005b838110156116eb5781810151838201526020016116d3565b50506000910152565b60208152600082518060208401526117138160408501602087016116d0565b601f01601f19169190910160400192915050565b60006020828403121561173957600080fd5b611572826115c3565b6000806000806080858703121561175857600080fd5b611761856115c3565b935061176f602086016115c3565b925061177d604086016115c3565b915061178b606086016115c3565b905092959194509250565b6001600160a01b039384168152919092166020820152604081019190915260600190565b634e487b7160e01b600052601160045260246000fd5b6000600182016117e2576117e26117ba565b5060010190565b80820180821115611259576112596117ba565b60006020828403121561180e57600080fd5b8151801515811461157257600080fd5b60006020828403121561183057600080fd5b5051919050565b805169ffffffffffffffffffff811681146115da57600080fd5b600080600080600060a0868803121561186957600080fd5b61187286611837565b945060208601519350604086015192506060860151915061189560808701611837565b90509295509295909350565b8082028115828204841417611259576112596117ba565b6000826118d557634e487b7160e01b600052601260045260246000fd5b500490565b600082516118ec8184602087016116d0565b919091019291505056fe360894a13ba1a3210667c828492db98dca3e2076cc3735a920a3ca505d382bbc9b779b17422d0df92223018b32b4d1fa46e071723d6817e2486d003becc55f00a2646970667358221220b1986c3a85f64268352024d6e1801357ab7fb5f217b3f55271d62b5b767a80e364736f6c63430008180033",
  "devdoc": {
    "details": " UUPS ",
    "errors": {
      "AddressEmptyCode(address)": [
        {
          "details": "There's no code at `target` (it is not a contract)."
        }
      ],
      "ERC1967InvalidImplementation(address)": [
        {
          "details": "The `implementation` of the proxy is invalid."
        }
      ],
      "ERC1967NonPayable()": [
        {
          "details": "An upgrade function sees `msg.value > 0` that may be lost."
        }
      ],
      "FailedCall()": [
        {
          "details": "A call to an address target failed. The target may have reverted."
        }
      ],
      "InvalidInitialization()": [
        {
          "details": "The contract is already initialized."
        }
      ],
      "NotInitializing()": [
        {
          "details": "The contract is not initializing."
        }
      ],
      "OwnableInvalidOwner(address)": [
        {
          "details": "The owner is not a valid owner account. (eg. `address(0)`)"
        }
      ],
      "OwnableUnauthorizedAccount(address)": [
        {
          "details": "The caller account is not authorized to perform an operation."
        }
      ],
      "ReentrancyGuardReentrantCall()": [
        {
          "details": "Unauthorized reentrant call."
        }
      ],
      "UUPSUnauthorizedCallContext()": [
        {
          "details": "The call is from an unauthorized context."
        }
      ],
      "UUPSUnsupportedProxiableUUID(bytes32)": [
        {
          "details": "The storage `slot` is unsupported as a UUID."
        }
      ]
    },
    "events": {
      "Initialized(uint64)": {
        "details": "Triggered when the contract has been initialized or reinitialized."
      },
      "Upgraded(address)": {
        "details": "Emitted when the implementation is upgraded."
      }
    },
    "kind": "dev",
    "methods": {
      "bidWithEth(uint256)": {
        "details": " ETH "
      },
      "bidWithToken(uint256,uint256)": {
        "details": " ERC20USDC"
      },
      "constructor": {
        "custom:oz-upgrades-unsafe-allow": "constructor"
      },
      "createAuction(uint256,uint256)": {
        "details": "",
        "params": {
          "durationSeconds": "",
          "tokenId": " NFT ID"
        }
      },
      "endAuction(uint256)": {
        "details": ""
      },
      "initialize(address,address,address,address)": {
        "details": "",
        "params": {
          "_ethUsdFeed": "Chainlink ETH/USD ",
          "_nft": "NFT ",
          "_paymentToken": "ERC20  USDC",
          "_tokenUsdFeed": "Chainlink USDC/USD "
        }
      },
      "owner()": {
        "details": "Returns the address of the current owner."
      },
      "proxiableUUID()": {
        "details": "Implementation of the ERC-1822 {proxiableUUID} function. This returns the storage slot used by the implementation. It is used to validate the implementation's compatibility when performing an upgrade. IMPORTANT: A proxy pointing at a proxiable contract should not be considered proxiable itself, because this risks bricking a proxy that upgrades to it, by delegating to itself until out of gas. Thus it is critical that this function revert if invoked through a proxy. This is guaranteed by the `notDelegated` modifier."
      },
      "renounceOwnership()": {
        "details": "Leaves the contract without owner. It will not be possible to call `onlyOwner` functions. Can only be called by the current owner. NOTE: Renouncing ownership will leave the contract without an owner, thereby disabling any functionality that is only available to the owner."
      },
      "transferOwnership(address)": {
        "details": "Transfers ownership of the contract to a new account (`newOwner`). Can only be called by the current owner."
      },
      "upgradeToAndCall(address,bytes)": {
        "custom:oz-upgrades-unsafe-allow-reachable": "delegatecall",
        "details": "Upgrade the implementation of the proxy to `newImplementation`, and subsequently execute the function call encoded in `data`. Calls {_authorizeUpgrade}. Emits an {Upgraded} event."
      }
    },
    "title": "NFT  ETH  USDC ",
    "version": 1
  },
  "userdoc": {
    "kind": "user",
    "methods": {},
    "version": 1
  },
  "storageLayout": {
    "storage": [
      {
        "astId": 9196,
        "contract": "contracts/Auction.sol:Auction",
        "label": "nftContract",
        "offset": 0,
        "slot": "0",
        "type": "t_contract(IERC721)3178"
      },
      {
        "astId": 9199,
        "contract": "contracts/Auction.sol:Auction",
        "label": "paymentToken",
        "offset": 0,
        "slot": "1",
        "type": "t_contract(IERC20)2078"
      },
      {
        "astId": 9202,
        "contract": "contracts/Auction.sol:Auction",
        "label": "ethUsdFeed",
        "offset": 0,
        "slot": "2",
        "type": "t_contract(AggregatorV3Interface)45"
      },
      {
        "astId": 9205,
        "contract": "contracts/Auction.sol:Auction",
        "label": "tokenUsdFeed",
        "offset": 0,
        "slot": "3",
        "type": "t_contract(AggregatorV3Interface)45"
      },
      {
        "astId": 9227,
        "contract": "contracts/Auction.sol:Auction",
        "label": "auctions",
        "offset": 0,
        "slot": "4",
        "type": "t_mapping(t_uint256,t_struct(AuctionInfo)9222_storage)"
      },
      {
        "astId": 9229,
        "contract": "contracts/Auction.sol:Auction",
        "label": "auctionCount",
        "offset": 0,
        "slot": "5",
        "type": "t_uint256"
      }
    ],
    "types": {
      "t_address": {
        "encoding": "inplace",
        "label": "address",
        "numberOfBytes": "20"
      },
      "t_bool": {
        "encoding": "inplace",
        "label": "bool",
        "numberOfBytes": "1"
      },
      "t_contract(AggregatorV3Interface)45": {
        "encoding": "inplace",
        "label": "contract AggregatorV3Interface",
        "numberOfBytes": "20"
      },
      "t_contract(IERC20)2078": {
        "encoding": "inplace",
        "label": "contract IERC20",
        "numberOfBytes": "20"
      },
      "t_contract(IERC721)3178": {
        "encoding": "inplace",
        "label": "contract IERC721",
        "numberOfBytes": "20"
      },
      "t_mapping(t_uint256,t_struct(AuctionInfo)9222_storage)": {
        "encoding": "mapping",
        "key": "t_uint256",
        "label": "mapping(uint256 => struct Auction.AuctionInfo)",
        "numberOfBytes": "32",
        "value": "t_struct(AuctionInfo)9222_storage"
      },
      "t_struct(AuctionInfo)9222_storage": {
        "encoding": "inplace",
        "label": "struct Auction.AuctionInfo",
        "members": [
          {
            "astId": 9207,
            "contract": "contracts/Auction.sol:Auction",
            "label": "tokenId",
            "offset": 0,
            "slot": "0",
            "type": "t_uint256"
          },
          {
            "astId": 9209,
            "contract": "contracts/Auction.sol:Auction",
            "label": "seller",
            "offset": 0,
            "slot": "1",
            "type": "t_address"
          },
          {
            "astId": 9211,
            "contract": "contracts/Auction.sol:Auction",
            "label": "endTime",
            "offset": 0,
            "slot": "2",
            "type": "t_uint256"
          },
          {
            "astId": 9213,
            "contract": "contracts/Auction.sol:Auction",
            "label": "highestBidder",
            "offset": 0,
            "slot": "3",
            "type": "t_address"
          },
          {
            "astId": 9215,
            "contract": "contracts/Auction.sol:Auction",
            "label": "highestBidUsd",
            "offset": 0,
            "slot": "4",
            "type": "t_uint256"
          },
          {
            "astId": 9217,
            "contract": "contracts/Auction.sol:Auction",
            "label": "rawAmount",
            "offset": 0,
            "slot": "5",
            "type": "t_uint256"
          },
          {
            "astId": 9219,
            "contract": "contracts/Auction.sol:Auction",
            "label": "isEth",
            "offset": 0,
            "slot": "6",
            "type": "t_bool"
          },
          {
            "astId": 9221,
            "contract": "contracts/Auction.sol:Auction",
            "label": "ended",
            "offset": 1,
            "slot": "6",
            "type": "t_bool"
          }
        ],
        "numberOfBytes": "224"
      },
      "t_uint256": {
        "encoding": "inplace",
        "label": "uint256",
        "numberOfBytes": "32"
      }
    }
  }
}